:1000000012C02CC02BC02AC029C028C027C026C0BF
:1000100025C024C023C022C021C020C01FC01EC0D4
:100020001DC01CC01BC011241FBECFE5D4E0DEBF25
:10003000CDBF10E0A0E6B0E0ECEDFAE102C0059023
:100040000D92A037B107D9F711E0A0E7B0E001C0E9
:100050001D92AA37B107E1F71AD13ECDD1CF91E079
:1000600005C09F5F913111F480E008957799F9CF31
:100070008FB97699F6CF7799FECF81E00895CF9327
:10008000DF9340910000A0E0B0E0C0EFD0E020E1BD
:1000900037E2FE013197F1F721503040D1F79B99BB
:1000A00041E09C9942E09D9943E09E9944E06417A9
:1000B000C1F04093000080E090E006DD823069F0FE
:1000C000833018F48130A9F405C0833029F08430DE
:1000D00081F405C0A89A0DC0A89AA99A0AC0C29A2C
:1000E00008C01196A817B90710F4462FD0CF609317
:1000F0000000DF91CF9108957F928F929F92AF92EF
:10010000BF92CF92DF92EF92FF920F931F93DF93F4
:10011000CF93CDB7DEB7E2970FB6F894DEBF0FBE30
:10012000CDBF8E010D5F1F4F80E3F80111928A95BC
:10013000E9F766E370E080E090E039D3EE24FF2435
:1001400068014E010894811C911C90ED792E83E387
:10015000A82EB12CAC0EBD1EC60160E370E0A40158
:10016000F5D6C29A88B38D6F88BB7DB88601F80139
:1001700081918F0174DF0A151B05C9F788B38B6F56
:1001800088BBC19A0894E11CF11CF0E0EF16F1E085
:10019000FF0611F7E2960FB6F894DEBF0FBECDBF93
:1001A000CF91DF911F910F91FF90EF90DF90CF9053
:1001B000BF90AF909F908F907F9008956F927F92A5
:1001C0008F929F92AF92BF92CF92DF92EF92FF9267
:1001D0000F931F93DF93CF93CDB7DEB7A6970FB6DC
:1001E000F894DEBF0FBECDBFBC017E010894E11CB8
:1001F000F11CC701F1D5982F882399F500E010E094
:1002000051E1652E712C6C0E7D1E47014AE1A42E32
:10021000B12CAC0EBD1E3DE0C32ED12C27E2E22E48
:10022000F12CEC0EFD1EC401B301F8D3982F8823E6
:10023000C1F48A8D8823A9F0898D8F7EA1F3D50121
:100240000C9DF0010D9DF00D1C9DF00D1124EA5840
:10025000FF4F8D918193AE15BF05D9F70F5F1F4FEB
:10026000E2CF892FA6960FB6F894DEBF0FBECDBFA2
:10027000CF91DF911F910F91FF90EF90DF90CF9082
:10028000BF90AF909F908F907F906F9008951F9335
:10029000DF93CF93CDB7DEB7AC970FB6F894DEBF40
:1002A0000FBECDBF8FEA87BB8AE284BB88B38B6F5A
:1002B00088BBC19ACE010196D2D8882309F055C0D7
:1002C00080E690E07BDF80E090E0FEDB823069F04A
:1002D000833018F4813061F405C0833029F0843014
:1002E00039F405C0A89A04C0A89AA99A01C0C29A74
:1002F00087E690E066E770E0E0DBC2D51DE080E0D5
:1003000090E0E2DB823081F0833018F48130D1F765
:1003100005C0833069F08430A9F70EC0EDDE80E1BE
:100320009EE061E0ACDEEBCFE7DE85E090E007C069
:10033000E3DE8AE090E003C0DFDE84E190E061E08C
:100340009EDE60917000619FB00111246A587F4F5A
:1003500087E690E0B2DB94D51092700087E690E0DB
:1003600066E770E0AADB8CD5CACFAC960FB6F894DE
:10037000DEBF0FBECDBFCF91DF911F910895CF9209
:10038000DF92EF92FF920F931F93CF93DF936C0155
:10039000C0917100D0917200FC0111821082248101
:1003A000358146815781213031054105510509F4D8
:1003B0005AC088859985AA85BB85281739074A07B9
:1003C0005B0708F050C0211531054105510539F48E
:1003D0008881833021F4288939894A895B89F6012B
:1003E0002087318742875387211531054105510503
:1003F00079F18EEFE82E8FEFF82E8FEF082F8FEF29
:10040000182FE20EF31E041F151F88859985AA85F3
:10041000BB850297A109B109E816F9060A071B076F
:1004200028F020E030E040E050E016C0298130E0C4
:1004300040E050E0C801B701FFDA9B01AC018C89B4
:100440009D89AE89BF89280F391F4A1F5B1F04C0D1
:10045000288939894A895B89F60124873587468747
:10046000578780E001C081E0DF91CF911F910F910C
:10047000FF90EF90DF90CF9008956F927F928F92D0
:100480009F92AF92BF92CF92DF92EF92FF920F9323
:100490001F93DF93CF9300D000D0CDB7DEB74B01D1
:1004A0005C01609071007090720082E08816910487
:1004B000A104B10408F4B0C0F30180859185A28540
:1004C000B38588169906AA06BB0608F0A5C08081E8
:1004D000823009F45DC0833009F478C0813009F0BE
:1004E0009BC0C40196958795880D991D9C0131701C
:1004F000892F992786956C01EE24FF24F30144850A
:10050000558566857785CE010196F1E02F3F3F073F
:1005100049F0C40ED51EE61EF71EB701A60102E083
:1005200010E01DC04C0D5D1D6E1D7F1D2FEF31E0D5
:1005300001E010E010D9882309F06EC0F301448572
:100540005585668577854F5F5F4F6F4F7F4F4C0DA9
:100550005D1D6E1D7F1DCE01029620E030E0FBD8B0
:10056000882309F059C069817A81C4018170907033
:10057000892B39F0A4E076956795AA95E1F79B0160
:1005800022C09B0140E050E03F704070507048C076
:1005900077276B2D5A2D492DF30184859585A685E6
:1005A000B785480F591F6A1F7B1F94013070220FB7
:1005B000331FCE01019602E010E0CDD8882361F50B
:1005C00089819A819C0140E050E02AC0B501A401D4
:1005D00027E076956795579547952A95D1F7F301CA
:1005E00084859585A685B785480F591F6A1F7B1F8F
:1005F00094012F773070220F331F220F331FCE014B
:10060000019604E010E0A7D8882331F429813A81CB
:100610004B815C815F7004C021E030E040E050E03D
:10062000B901CA010F900F900F900F90CF91DF91F9
:100630001F910F91FF90EF90DF90CF90BF90AF9000
:100640009F908F907F906F900895AF92BF92CF92BE
:10065000DF92EF92FF920F931F93CF93DF935C0192
:10066000C0917100D0917200FC01C080D1800894CB
:10067000C11CD11CC114D10409F48DC02485358559
:1006800046855785211531054105510509F483C07B
:10069000C6018F709070892B09F078C02F5F3F4F93
:1006A0004F4F5F4F24873587468757874085518551
:1006B00062857385411551056105710539F48C8199
:1006C0009D81C816D90608F461C065C0898190E093
:1006D00001979601E4E036952795EA95E1F78223A4
:1006E0009323892B09F052C0CB01BA01C6DE9B01CE
:1006F000AC01623071058105910510F481E04CC0B8
:1007000088859985AA85BB85281739074A075B071D
:1007100008F041C0F5012087318742875387C09197
:100720007100D09172008EEFE82E8FEFF82E8FEFD0
:10073000082F8FEF182FE20EF31E041F151F888558
:100740009985AA85BB850297A109B109E816F90622
:100750000A071B0728F020E030E040E050E011C01D
:10076000298130E040E050E0C801B70165D99B0124
:10077000AC018C899D89AE89BF89280F391F4A1F1A
:100780005B1FF5012487358746875787F501D1829E
:10079000C08280E001C083E0DF91CF911F910F9173
:1007A000FF90EF90DF90CF90BF90AF9008952F9281
:1007B0003F924F925F926F927F928F929F92AF92F1
:1007C000BF92CF92DF92EF92FF920F931F93CF933E
:1007D000DF93E82FC0917100D0917200209711F43F
:1007E00086E009C18A8180FD02C085E004C1AC8C2D
:1007F000BD8CCE8CDF8C4E2F592FCB01DA013C0102
:100800004D01A614B704C804D90410F435014601FB
:10081000288D398D4A8D5B8D188E198E1A8E1B8E00
:10082000611471048104910409F4E4C08981A82E43
:10083000BB24CC24DD2499E0AA0CBB1CCC1CDD1C01
:100840009A95D1F72115310541055105A1F11901FD
:100850002A0108942108310841085108C401B30154
:100860006150704080409040A601950104D9790103
:100870008A01C201B101A6019501FDD8E216F30675
:1008800004071507C0F088279927DC018A199B09FE
:10089000AC09BD0982219321A421B521888F998FAC
:1008A000AA8FBB8F681A790A8A0A9B0A2CA13DA1DC
:1008B0004EA15FA132C028A139A14AA15BA12CA3FE
:1008C0003DA34EA35FA329C0CA01B901D6DD9B0198
:1008D000AC01623071058105910508F488C08885F6
:1008E0009985AA85BB85281739074A075B0708F051
:1008F0007EC02CA33DA34EA35FA3888D998DAA8DA6
:10090000BB8D8A0D9B1DAC1DBD1D888F998FAA8F35
:10091000BB8F6A187B088C089D08A614B704C8040E
:10092000D90490F2888D998DAA8DBB8D860D971D67
:10093000A81DB91D888F998FAA8FBB8F0091710058
:10094000109172008EEFA82E8FEFB82E8FEFC82E69
:100950008FEFD82EA20EB31EC41ED51EF8018085BF
:100960009185A285B3850297A109B109A816B90698
:10097000CA06DB06E0F5218130E040E050E0C60128
:10098000B5015AD89B01AC01F80184899589A689E3
:10099000B789280F391F4A1F5B1F211531054105F3
:1009A000510529F1D401C30119E0B695A795979592
:1009B00087951A95D1F7982F8B83FFEFEF2EF1E0F3
:1009C000FF2E012D112D6E207F2080229122611497
:1009D00071048104910471F0280F311D411D511DD6
:1009E00028A739A74AA75BA79F5F9B8303C01A82EA
:1009F00081E001C080E0DF91CF911F910F91FF90C6
:100A0000EF90DF90CF90BF90AF909F908F907F90AE
:100A10006F905F904F903F902F900895AF92BF924C
:100A2000CF92DF92EF92FF920F931F93DF93CF93BA
:100A3000CDB7DEB7AC970FB6F894DEBF0FBECDBF13
:100A40007C015B01E0917100F0917200309711F42C
:100A500086E0C2C0CE010D9697838683CE010196B3
:100A6000D70113969C938E9312976115710519F413
:100A7000C70185DCB1C0C680D78083E024C0F70100
:100A8000208131812F703070E5E0220F331FEA950D
:100A9000E1F7C60100E210E05ED6882311F081E0A4
:100AA0001EC0D6019C91992309F4A7C01B968C9176
:100AB000953E29F09E3219F08F7383FF1CC0C70149
:100AC000C4DD882361F4F701448555856685778503
:100AD000411551056105710591F6882361F0D70133
:100AE0001C961D921D921D921C921F97833019F027
:100AF000882309F071C09501275F3F4FF701848576
:100B00009585A685B7850097A105B10509F456C05E
:100B1000E0917100F09172004681578180E090E091
:100B2000FA01E80FF91FE081E03251F0E53009F4F5
:100B3000E5EED901ED939D0101968830910581F78D
:100B4000FA018085803211F4F90110C0F9018EE2BA
:100B50008193DA012C5F3F4F18968C911897803261
:100B600029F081931196E217F307B1F7DA011B968A
:100B70008C91D50118968C93DA015C960D911D919C
:100B80002D913C915F97D5010D931D932D933C932F
:100B90001397DA0158968D919C915997D501159626
:100BA0009C938E931497DA0156968D919C9157974A
:100BB000D50117969C938E9316979F01F901108289
:100BC000C70143DD833041F4D7011C961D921D926D
:100BD0001D921C921F9780E0AC960FB6F894DEBF72
:100BE0000FBECDBFCF91DF911F910F91FF90EF907E
:100BF000DF90CF90BF90AF90089583E070CF8F9239
:100C00009F92AF92BF92CF92DF92EF92FF920F939B
:100C10001F93CF93DF93EC017B0103C00894E11C89
:100C2000F11CF70180818032C9F38F3219F40894E6
:100C3000E11CF11C1C821D821E821F82F701808133
:100C4000813260F4CE019BDBB82EE0917100F0910F
:100C500072000680F781E02D1082A7C080E2882E06
:100C600099249394AA81BB81FD018BE090E001C09F
:100C7000819201972FEF8F3F9207D1F720E0AA24AE
:100C800038E002C028E03BE0F701EA0DF11D908159
:100C9000A3949132B0F09F32A1F09E3211F023174D
:100CA00028F0383071F49E3269F30BC0892F8156D9
:100CB0008A3108F49052FD01E20FF11D90832F5FFD
:100CC000E3CF1B961C921B97913210F41B969C92BB
:100CD000CE0155DBB82E8823E9F5E0917100F09143
:100CE0007200C680D7804C855D856E857F852881A2
:100CF00039812F70307005E0220F331F0A95E1F71C
:100D0000C60100E210E027D5882311F081E021C060
:100D1000F6018081882309F456C0838583FD15C0C0
:100D2000D6018A819B819C01F9012BE030E02150A2
:100D300030408FEF2F3F380709F448C09C918081E5
:100D4000981719F411963196F2CFCE017EDC8823E4
:100D500051F2B82EE3E0BE1641F5EA81FB818385AE
:100D6000882309F122C0E0917100F09172000680A1
:100D7000F781E02D838584FF16C0EA0CF11C84897D
:100D80009589A0E0B0E0DC0199278827228D338D7A
:100D900040E050E0822B932BA42BB52B8C839D83BA
:100DA000AE83BF835FCFA4E0BA2E8B2DDF91CF91AE
:100DB0001F910F91FF90EF90DF90CF90BF90AF9079
:100DC0009F908F900895F3E0BF2EC7CFEA81FB81FB
:100DD0008385882341F2E9CFEF92FF920F931F930F
:100DE000DF93CF93CDB7DEB7AC970FB6F894DEBFE5
:100DF0000FBECDBF8C01E0917100F0917200309771
:100E000011F486E030C03DE0E32EF12CEC0EFD1E27
:100E1000F782E682CE010196F80193838283C801AE
:100E2000EEDE8823E9F48D858823C1F0888D84FF68
:100E300019C0F70184899589A0E0B0E0DC01992709
:100E40008827228D338D40E050E0822B932BA42BFA
:100E5000B52BF80184839583A683B783C8018FDA05
:100E6000833009F484E0AC960FB6F894DEBF0FBE71
:100E7000CDBFCF91DF911F910F91FF90EF9008951B
:100E8000EF92FF920F931F93DF93CF93CDB7DEB70F
:100E9000EC970FB6F894DEBF0FBECDBFBC0100913A
:100EA0007100109172000115110511F466E040C047
:100EB000F80112825DE1E52EF12CEC0EFD1EF782A9
:100EC000E682CE010196988B8F87CE010D9697DE34
:100ED000682F882369F58D8D882349F188A584FDC5
:100EE00026C0F70184899589A0E0B0E0DC0199274C
:100EF0008827228D338D40E050E0822B932BA42B4A
:100F0000B52BF80180A391A3A2A3B3A3F701848D0D
:100F1000958DA68DB78DF801848F958FA68FB78F8D
:100F2000108E118E128E138E81E0828301C063E0D9
:100F3000862FEC960FB6F894DEBF0FBECDBFCF91D3
:100F4000DF911F910F91FF90EF9008954F925F9264
:100F50006F927F928F929F92AF92BF92CF92DF92C9
:100F6000EF92FF920F931F93CF93DF933C016B019E
:100F70004A01C0917100D0917200FA011182108271
:100F8000209711F486E0D6C08A8180FD02C085E0FA
:100F9000D1C02C8D3D8D4E8D5F8D888D998DAA8D04
:100FA000BB8D281B390B4A0B5B0BCB01A0E0B0E0DB
:100FB000281739074A075B0708F469015301412CD8
:100FC000F2E05F2EAFC0E88CF98C0A8D1B8DD80142
:100FD000C7019170A070B0700097A105B10509F02C
:100FE00068C0C801B701E9E0969587957795679540
:100FF000EA95D1F7298130E040E050E03CD5611519
:10100000710581059105D1F4E114F1040105110583
:1010100029F468A179A18AA19BA105C06CA17DA139
:101020008EA19FA12ADA623071058105910508F42D
:101030007FC06CA37DA38EA39FA31B820091710030
:10104000109172002CA13DA14EA15FA12250304011
:1010500040405040F80180859185A285B385029774
:10106000A109B109281739074A075B0708F060C0D2
:10107000618170E080E090E0DFD49B01AC01F80179
:1010800084899589A689B789280F391F4A1F5B1F54
:10109000211531054105510509F44AC08B81280FFE
:1010A000311D411D511D28A739A74AA75BA78F5F96
:1010B0008B83088D198D2A8D3B8DC8019170A201FB
:1010C000481B590B76014C155D0508F47A01611433
:1010D000710419F480E090E001C0C50148A559A54C
:1010E0006AA57BA598013170870135D3882301F566
:1010F000C701A0E0B0E0288D398D4A8D5B8D280FA7
:10110000391F4A1F5B1F288F398F4A8F5B8FAE0CA8
:10111000BF1CCE18DF08F401808191818E0D9F1DC8
:1011200091838083C114D10409F04DCF80E002C0C7
:101130001A8281E0DF91CF911F910F91FF90EF9084
:10114000DF90CF90BF90AF909F908F907F906F90E7
:101150005F904F900895AF92BF92CF92DF92EF923F
:10116000FF920F931F93CF93DF93B82EA92E6A019E
:101170007B012EEF31E002E010E0EDD2882311F088
:1011800023E031C0CB2DDA2D8881998185559A4A8B
:1011900011F022E028C08B2D9A2DB701A60126E37D
:1011A00030E002E010E0D7D2882339F488819981B9
:1011B0008654914411F420E016C08B2D9A2DB7016E
:1011C000A60122E530E002E010E0C5D2882311F04C
:1011D00021E009C020E0888199818654914409F476
:1011E00021E081E02827822FDF91CF911F910F917D
:1011F000FF90EF90DF90CF90BF90AF9008954F9207
:101200005F926F927F928F929F92AF92BF92CF9296
:10121000DF92EF92FF920F931F93CF93DF93FC0126
:101220005B013A01C0917100D0917200DA011D9208
:101230001C92209711F486E001C18A8190E080FD24
:1012400002C085E0FBC0807490706115710581F467
:10125000892B51F080E090E040E050E060E070E0E9
:10126000CBD2882309F0E8C08A818F7B8A83E2C0D1
:10127000892B51F4888D998DAA8DBB8D80709E7FAE
:10128000888F998FAA8FBB8F2C8D3D8D4E8D5F8D52
:10129000888D998DAA8DBB8D281B390B4A0B5B0B52
:1012A000C501A0E0B0E0281739074A075B0708F43A
:1012B00059014F01412CB2E05B2EB8C0E88CF98C8B
:1012C0000A8D1B8DC7019170892B09F073C0C8016D
:1012D000B701A9E09695879577956795AA95D1F777
:1012E000298130E040E050E0C6D3611571058105E9
:1012F0009105D1F4E114F1040105110529F468A167
:1013000079A18AA19BA105C06CA17DA18EA19FA1FD
:10131000B4D8623071058105910508F48DC06CA3C5
:101320007DA38EA39FA31B82009171001091720078
:101330002CA13DA14EA15FA1225030404040504021
:10134000F80180859185A285B3850297A109B1092D
:10135000281739074A075B0708F06EC0618170E003
:1013600080E090E069D39B01AC01F8018489958904
:10137000A689B789280F391F4A1F5B1F2115310520
:101380004105510509F458C08B81BA01A901480FE4
:10139000511D611D711D48A759A76AA77BA78F5FC3
:1013A0008B8380E090E028D2882309F045C08A81B1
:1013B00080648A83888D998D91709201281B390BE6
:1013C00065012A153B0508F46901760100E010E08B
:1013D000C401B801A70110D2882371F5888D998DB9
:1013E000AA8DBB8D8E0D9F1DA01FB11F9C01888FE4
:1013F000998FAA8FBB8FD3018D919C9111978C0DE2
:101400009D1D8D939C933170232B61F480E090E0BF
:1014100040E050E060E070E0EFD1882369F48A8119
:101420008F7B8A838C0C9D1CAC18BD08A114B10461
:1014300009F044CF80E002C01A8281E0DF91CF91B1
:101440001F910F91FF90EF90DF90CF90BF90AF90E2
:101450009F908F907F906F905F904F9008956F92C4
:101460007F928F929F92AF92BF92CF92DF92EF9234
:10147000FF920F931F93DF93CF93CDB7DEB7A4975F
:101480000FB6F894DEBF0FBECDBF5C0110927200A4
:1014900010927100009709F4E6C020D280FF02C0CC
:1014A00082E0E6C04E010894811C911CC40140E01A
:1014B00050E060E070E04FDE813021F0CC24DD248C
:1014C000760119C0C40140E050E060E070E02EEB0E
:1014D00031E000E110E03FD1882309F0C6C08D81E2
:1014E000882309F4C4C0C984DA84EB84FC84C40171
:1014F000B701A60130DE833009F4B7C0882309F0B4
:10150000B6C0CE010196B701A6012DE030E004E29D
:1015100010E021D1882309F0A8C08A859B85BC01F1
:1015200080E090E0611571058105910521F4688DD9
:10153000798D8A8D9B8D2C8130E040E050E07CD20B
:101540003B014C018A819B81A0E0B0E0C80ED91E0E
:10155000EA1EFB1EF501C486D586E686F7868981DC
:1015600081832D813E81358324838F8198857C0101
:1015700000E010E0E114F1040105110521F4EC880C
:10158000FD880E891F898A819B81A0E0B0E0E81A5E
:10159000F90A0A0B1B0BE618F7080809190984E079
:1015A000369527958A95E1F7C901A0E0B0E0E81AE1
:1015B000F90A0A0B1B0BF501218130E040E050E0F5
:1015C000C801B70158D22E5F3F4F4F4F5F4FF50113
:1015D0002087318742875387273FFFE03F07F0E0AE
:1015E0004F07F0E05F0710F481E008C0275F3F4F2E
:1015F0004040504010F083E001C082E0F50180835C
:10160000833029F488A199A1AAA1BBA109C0F50141
:1016100084859585A685B785860D971DA81DB91D5E
:10162000808B918BA28BB38BF5018481958114E023
:10163000969587951A95E1F7A0E0B0E02485358569
:1016400046855785820F931FA41FB51F860D971DD2
:10165000A81DB91D848B958BA68BB78B1282B09277
:101660007200A092710080E003C081E001C087E0B9
:10167000A4960FB6F894DEBF0FBECDBFCF91DF9119
:101680001F910F91FF90EF90DF90CF90BF90AF90A0
:101690009F908F907F906F90089590E087FD02C09B
:1016A000C09801C0C09AC29A0000C2989F5F98304B
:1016B00011F0880FF3CF0895C09A90E080E0C29AAD
:1016C000880FB1998160C29800009F5F9830B9F788
:1016D0000895DF92EF92FF920F931F93D82E7A0115
:1016E0008B0187FF0AC087E740E050E060E070E0D0
:1016F000F0DF823050F58FE7D822C39ADDDFC39840
:10170000DBDF8D2DCADF812F9927AA27BB27C5DFF5
:10171000C801AA27BB27C1DFBB27A12F902F8F2D80
:10172000BCDF8E2DBADF80E4D81611F485E906C03F
:1017300088E4D81611F487E801C081E0AEDF1AE032
:10174000BBDF87FF02C01150D9F71F910F91FF90A7
:10175000EF90DF900895CF92DF92EF92FF920F9378
:101760001F93CF93DF936C017901B49B02C011E00A
:1017700039C08091750083FD07C039E0440F551FC3
:10178000661F771F3A95D1F781E5A3DF882341F5DE
:10179000C0E3D5E791DF8F3F19F42197D9F720C037
:1017A0008E3FF1F4E114F10421F0E70185DF219788
:1017B000E9F7C114D10439F0E8017EDFF601819325
:1017C0006F012197D1F7CC27DD27CE19DF09CE5F36
:1017D000DD4FC01BD10B70DF2197E9F710E001C08E
:1017E00011E06ADF812FDF91CF911F910F91FF9060
:1017F000EF90DF90CF900895EF92FF920F931F9399
:10180000CF93DF937C01B49960C0B5995EC0009717
:10181000E1F08A01C0917300D091740007C0F70114
:1018200081917F013ADF0150104021970115110588
:1018300029F4D0937400C093730025C0209779F7E2
:1018400010927400109273001EC04115510561057D
:101850007105D9F08091750083FD07C0E9E0440F60
:10186000551F661F771FEA95D1F788E532DF882379
:1018700061F58FEF12DF8EEF10DF80E092E0909342
:1018800074008093730010E021C0C0917300D09168
:101890007400229603C080E000DF21972097D9F7DB
:1018A0000BDF8F71853071F4C8EEDDEF01C0219739
:1018B00003DF8F3F19F02097D1F704C0CD2B11F033
:1018C00010E001C011E0F8DE01C011E0812FDF91CE
:1018D000CF911F910F91FF90EF900895CF92DF92DB
:1018E000EF92FF920F931F93DF93CF9300D000D01E
:1018F000CDB7DEB78BE388BB8DE087BBB4997BC0E7
:10190000C39907C080E090E040E050E060E070E004
:1019100073DF14E6D1DE1150E9F780E440E050E0D7
:1019200060E070E0D6DE813009F05EC088E44AEA0B
:1019300051E060E070E0CDDE8130B1F56E010894D9
:10194000C11CD11C76018E010B5F1F4FB5DEF70164
:1019500081937F01E017F107C9F78B81813009F08E
:1019600043C08C818A3A09F03FC000EE1EE203C0FA
:1019700001501040C9F189EE40E050E060E070E4B1
:10198000A8DE8823A9F745C097DEF60181936F0191
:10199000EE15FF05C9F7898186FD03C004E0F02E2E
:1019A00024C01CE0F12E21C089EE40E050E060E050
:1019B00070E08FDE823028F0B1E4EB2EFF24F39448
:1019C00004C0A9EEEA2EF2E0FF2E08EA11E603C0F9
:1019D0000150104049F08E2D40E050E060E070E092
:1019E00078DE8823A9F71FC0FF24F092750064DE1B
:1019F00080E0FF2009F481E00F900F900F900F908E
:101A0000CF91DF911F910F91FF90EF90DF90CF90DA
:101A100008958AE740E050E060E070E05ADE8823F5
:101A200009F4B2CFE1CF80E540E052E060E070E041
:101A300050DE8823C9F6D9CF629FD001739FF00191
:101A4000829FE00DF11D649FE00DF11D929FF00D4E
:101A5000839FF00D749FF00D659FF00D9927729F85
:101A6000B00DE11DF91F639FB00DE11DF91FBD0110
:101A7000CF0111240895A1E21A2EAA1BBB1BFD0160
:101A80000DC0AA1FBB1FEE1FFF1FA217B307E4075D
:101A9000F50720F0A21BB30BE40BF50B661F771FB5
:101AA000881F991F1A9469F7609570958095909595
:101AB0009B01AC01BD01CF010895FB01DC01019048
:101AC0000D920020E1F70895E199FECF9FBB8EBBF8
:0C1AD000E09A99278DB30895F894FFCF99
:101ADC00696D61676573002F696D616765732F00B0
:00000001FF
